{
  "contractName": "TokenERC20",
  "abi": [
    {
      "constant": true,
      "inputs": [],
      "name": "avaliableSupply",
      "outputs": [
        {
          "name": "",
          "type": "uint256"
        }
      ],
      "payable": false,
      "stateMutability": "view",
      "type": "function"
    },
    {
      "constant": true,
      "inputs": [],
      "name": "name",
      "outputs": [
        {
          "name": "",
          "type": "string"
        }
      ],
      "payable": false,
      "stateMutability": "view",
      "type": "function"
    },
    {
      "constant": true,
      "inputs": [],
      "name": "totalSupply",
      "outputs": [
        {
          "name": "",
          "type": "uint256"
        }
      ],
      "payable": false,
      "stateMutability": "view",
      "type": "function"
    },
    {
      "constant": true,
      "inputs": [],
      "name": "decimals",
      "outputs": [
        {
          "name": "",
          "type": "uint256"
        }
      ],
      "payable": false,
      "stateMutability": "view",
      "type": "function"
    },
    {
      "constant": true,
      "inputs": [
        {
          "name": "",
          "type": "address"
        }
      ],
      "name": "balanceOf",
      "outputs": [
        {
          "name": "",
          "type": "uint256"
        }
      ],
      "payable": false,
      "stateMutability": "view",
      "type": "function"
    },
    {
      "constant": true,
      "inputs": [],
      "name": "buyPrice",
      "outputs": [
        {
          "name": "",
          "type": "uint256"
        }
      ],
      "payable": false,
      "stateMutability": "view",
      "type": "function"
    },
    {
      "constant": true,
      "inputs": [],
      "name": "owner",
      "outputs": [
        {
          "name": "",
          "type": "address"
        }
      ],
      "payable": false,
      "stateMutability": "view",
      "type": "function"
    },
    {
      "constant": true,
      "inputs": [],
      "name": "symbol",
      "outputs": [
        {
          "name": "",
          "type": "string"
        }
      ],
      "payable": false,
      "stateMutability": "view",
      "type": "function"
    },
    {
      "inputs": [
        {
          "name": "initialSupply",
          "type": "uint256"
        },
        {
          "name": "tokenName",
          "type": "string"
        },
        {
          "name": "tokenSymbol",
          "type": "string"
        }
      ],
      "payable": false,
      "stateMutability": "nonpayable",
      "type": "constructor"
    },
    {
      "anonymous": false,
      "inputs": [
        {
          "indexed": true,
          "name": "from",
          "type": "address"
        },
        {
          "indexed": true,
          "name": "to",
          "type": "address"
        },
        {
          "indexed": false,
          "name": "value",
          "type": "uint256"
        }
      ],
      "name": "Transfer",
      "type": "event"
    },
    {
      "anonymous": false,
      "inputs": [
        {
          "indexed": true,
          "name": "from",
          "type": "address"
        },
        {
          "indexed": false,
          "name": "value",
          "type": "uint256"
        }
      ],
      "name": "Burn",
      "type": "event"
    },
    {
      "constant": false,
      "inputs": [
        {
          "name": "_to",
          "type": "address"
        },
        {
          "name": "_value",
          "type": "uint256"
        }
      ],
      "name": "transfer",
      "outputs": [],
      "payable": false,
      "stateMutability": "nonpayable",
      "type": "function"
    }
  ],
  "bytecode": "0x60606040526008600355600354600a0a600455341561001d57600080fd5b604051610a76380380610a7683398101604052808051906020019091908051820191906020018051820191905050336000806101000a81548173ffffffffffffffffffffffffffffffffffffffff021916908373ffffffffffffffffffffffffffffffffffffffff1602179055506004548302600681905550600654600860003073ffffffffffffffffffffffffffffffffffffffff1673ffffffffffffffffffffffffffffffffffffffff16815260200190815260200160002081905550600860003073ffffffffffffffffffffffffffffffffffffffff1673ffffffffffffffffffffffffffffffffffffffff168152602001908152602001600020546007819055508160019080519060200190610138929190610199565b50806002908051906020019061014f929190610199565b5033600560006101000a81548173ffffffffffffffffffffffffffffffffffffffff021916908373ffffffffffffffffffffffffffffffffffffffff16021790555050505061023e565b828054600181600116156101000203166002900490600052602060002090601f016020900481019282601f106101da57805160ff1916838001178555610208565b82800160010185558215610208579182015b828111156102075782518255916020019190600101906101ec565b5b5090506102159190610219565b5090565b61023b91905b8082111561023757600081600090555060010161021f565b5090565b90565b6108298061024d6000396000f300606060405260043610610099576000357c0100000000000000000000000000000000000000000000000000000000900463ffffffff16806304a849381461009e57806306fdde03146100c757806318160ddd14610155578063313ce5671461017e57806370a08231146101a75780638620410b146101f45780638da5cb5b1461021d57806395d89b4114610272578063a9059cbb14610300575b600080fd5b34156100a957600080fd5b6100b1610342565b6040518082815260200191505060405180910390f35b34156100d257600080fd5b6100da610348565b6040518080602001828103825283818151815260200191508051906020019080838360005b8381101561011a5780820151818401526020810190506100ff565b50505050905090810190601f1680156101475780820380516001836020036101000a031916815260200191505b509250505060405180910390f35b341561016057600080fd5b6101686103e6565b6040518082815260200191505060405180910390f35b341561018957600080fd5b6101916103ec565b6040518082815260200191505060405180910390f35b34156101b257600080fd5b6101de600480803573ffffffffffffffffffffffffffffffffffffffff169060200190919050506103f2565b6040518082815260200191505060405180910390f35b34156101ff57600080fd5b61020761040a565b6040518082815260200191505060405180910390f35b341561022857600080fd5b610230610414565b604051808273ffffffffffffffffffffffffffffffffffffffff1673ffffffffffffffffffffffffffffffffffffffff16815260200191505060405180910390f35b341561027d57600080fd5b61028561043a565b6040518080602001828103825283818151815260200191508051906020019080838360005b838110156102c55780820151818401526020810190506102aa565b50505050905090810190601f1680156102f25780820380516001836020036101000a031916815260200191505b509250505060405180910390f35b341561030b57600080fd5b610340600480803573ffffffffffffffffffffffffffffffffffffffff169060200190919080359060200190919050506104d8565b005b60075481565b60018054600181600116156101000203166002900480601f0160208091040260200160405190810160405280929190818152602001828054600181600116156101000203166002900480156103de5780601f106103b3576101008083540402835291602001916103de565b820191906000526020600020905b8154815290600101906020018083116103c157829003601f168201915b505050505081565b60065481565b60035481565b60086020528060005260406000206000915090505481565b65414d3d7eb00081565b600560009054906101000a900473ffffffffffffffffffffffffffffffffffffffff1681565b60028054600181600116156101000203166002900480601f0160208091040260200160405190810160405280929190818152602001828054600181600116156101000203166002900480156104d05780601f106104a5576101008083540402835291602001916104d0565b820191906000526020600020905b8154815290600101906020018083116104b357829003601f168201915b505050505081565b6104e33383836104e7565b5050565b6000808373ffffffffffffffffffffffffffffffffffffffff161415151561050e57600080fd5b81600860008673ffffffffffffffffffffffffffffffffffffffff1673ffffffffffffffffffffffffffffffffffffffff168152602001908152602001600020541015151561055c57600080fd5b600860008473ffffffffffffffffffffffffffffffffffffffff1673ffffffffffffffffffffffffffffffffffffffff1681526020019081526020016000205482600860008673ffffffffffffffffffffffffffffffffffffffff1673ffffffffffffffffffffffffffffffffffffffff16815260200190815260200160002054011115156105ea57600080fd5b600860008473ffffffffffffffffffffffffffffffffffffffff1673ffffffffffffffffffffffffffffffffffffffff16815260200190815260200160002054600860008673ffffffffffffffffffffffffffffffffffffffff1673ffffffffffffffffffffffffffffffffffffffff1681526020019081526020016000205401905081600860008673ffffffffffffffffffffffffffffffffffffffff1673ffffffffffffffffffffffffffffffffffffffff1681526020019081526020016000206000828254039250508190555081600860008573ffffffffffffffffffffffffffffffffffffffff1673ffffffffffffffffffffffffffffffffffffffff168152602001908152602001600020600082825401925050819055508273ffffffffffffffffffffffffffffffffffffffff168473ffffffffffffffffffffffffffffffffffffffff167fddf252ad1be2c89b69c2b068fc378daa952ba7f163c4a11628f55a4df523b3ef846040518082815260200191505060405180910390a380600860008573ffffffffffffffffffffffffffffffffffffffff1673ffffffffffffffffffffffffffffffffffffffff16815260200190815260200160002054600860008773ffffffffffffffffffffffffffffffffffffffff1673ffffffffffffffffffffffffffffffffffffffff16815260200190815260200160002054011415156107f757fe5b505050505600a165627a7a723058204c78b17734b50d4b4fac674f181e18903b2c5c557dd1126ebb016f84154b24430029",
  "source": "/*\ntotalSupply - показывает не правильно\n\n- сделать паблик меппинг чтобы каждый по своему адресу увидел свой лимит - или доступный лимит\n\n(+)     нет софт капа\n(+)     скидок нет\n\n(+)     проданные токены на пресейл\n\n(+)     - ефир отправляется на мультисиг\n(+)     - убрать оракул - сколько стоит доллар - была првязка к доллару\n\nлучше сделать несколькими контрактами из за WhiteList\n\nсроки - 8-9 марта - на аудит\nтестирование ganashe\n\nВ контракте Crowdsale:\n\n(+)     function maxDayLimit (для ежедневного капа максимальной покупки) - 20 часов\n(+)      payable\n(+)     WhiteList - инвестор из данного списка участвует в ICO() - 10 часов\n(+)      проверка на наличие н=инвестора в WhiteList  в payable\n(+)     - tokenTransferFromHolding - для отправки токенов со счета escrow\n(+)     - сжигание нераспределеннх токенов -\n(+)     - finalize - complete\n(+)     - харкап в 3800 eth complete\n\nдля web3.js\nbalanseOf\nWeiRaised\n*/\npragma solidity ^0.4.18;\n\n/*\n* @author Ivan Borisov (2622610@gmail.com) (Github.com/pillardevelopment)\n* @dev Source code hence -\n* https://github.com/PillarDevelopment/Barbarossa-Git/blob/master/contracts/BarbarossaInvestToken.sol\n*\n*/\n/*********************************************************************************************************************\n * @title SafeMath\n * @dev Math operations with safety checks that throw on error\n */\nlibrary SafeMath {\n    /**\n    * @dev Multiplies two numbers, throws on overflow.\n    */\n    function mul(uint256 a, uint256 b) internal pure returns (uint256) {\n        if (a == 0) {\n            return 0;\n        }\n        uint256 c = a * b;\n        assert(c / a == b);\n        return c;\n    }\n    /**\n    * @dev Integer division of two numbers, truncating the quotient.\n    */\n    function div(uint256 a, uint256 b) internal pure returns (uint256) {\n        // assert(b > 0); // Solidity automatically throws when dividing by 0\n        uint256 c = a / b;\n        // assert(a == b * c + a % b); // There is no case in which this doesn't hold\n        return c;\n    }\n    /**\n    * @dev Substracts two numbers, throws on overflow (i.e. if subtrahend is greater than minuend).\n    */\n    function sub(uint256 a, uint256 b) internal pure returns (uint256) {\n        assert(b <= a);\n        return a - b;\n    }\n    /**\n    * @dev Adds two numbers, throws on overflow.\n    */\n    function add(uint256 a, uint256 b) internal pure returns (uint256) {\n        uint256 c = a + b;\n        assert(c >= a);\n        return c;\n    }\n}\n/*********************************************************************************************************************\n * @title Ownable\n * @dev The Ownable contract has an owner address, and provides basic authorization control\n * functions, this simplifies the implementation of \"user permissions\".\n */\ncontract Ownable {\n    address public owner;\n    /**\n     * @dev The Ownable constructor sets the original `owner` of the contract to the sender\n     * account.\n     */\n    function Ownable() public {\n        owner = msg.sender;\n    }\n    /**\n     * @dev Throws if called by any account other than the owner.\n     */\n    modifier onlyOwner() {\n        require(msg.sender == owner);\n        _;\n    }\n}\n/*********************************************************************************************************************\n* @dev see https://github.com/ethereum/EIPs/issues/20\n*/\ncontract TokenERC20 is Ownable {\n    using SafeMath for uint;\n\n    string public name;\n    string public symbol;\n    //!!!!!!!!!! не меняй его !!!!!!!!!!!!!!!!!!!\n    uint256 public decimals = 8; //!!!!!!!!!!!!!\n    //!!!!!!!!!!!!!!!!!!!!!!!!!!!!!!!!!!!!!!!\n\n    uint256 DEC = 10 ** uint256(decimals);\n    address public owner;\n    uint256 public totalSupply;\n    uint256 public avaliableSupply;\n    uint256 public constant buyPrice = 71800000000000;\n\n    mapping (address => uint256) public balanceOf;\n\n    event Transfer(address indexed from, address indexed to, uint256 value);\n    event Burn(address indexed from, uint256 value);\n\n    function TokenERC20(\n        uint256 initialSupply,\n        string tokenName,\n        string tokenSymbol\n    ) public\n    {\n        totalSupply = initialSupply * DEC;\n        balanceOf[this] = totalSupply;\n        avaliableSupply = balanceOf[this];\n        name = tokenName;\n        symbol = tokenSymbol;\n        owner = msg.sender;\n    }\n\n    function _transfer(address _from, address _to, uint256 _value) internal {\n        require(_to != 0x0);\n        require(balanceOf[_from] >= _value);\n        require(balanceOf[_to] + _value > balanceOf[_to]);\n        uint previousBalances = balanceOf[_from] + balanceOf[_to];\n        balanceOf[_from] -= _value;\n        balanceOf[_to] += _value;\n        Transfer(_from, _to, _value);\n        assert(balanceOf[_from] + balanceOf[_to] == previousBalances);\n    }\n\n    function transfer(address _to, uint256 _value) public {\n        _transfer(msg.sender, _to, _value);\n    }\n\n    function burn(uint256 _value) internal onlyOwner returns (bool success) {\n        totalSupply -= _value;\n        avaliableSupply -= _value;\n        Burn(this, _value);\n        return true;\n    }\n}\ncontract WhalesburgCrowdsale is TokenERC20 {\n    using SafeMath for uint;\n\n    address public multisig = 0xCe66E79f59eafACaf4CaBaA317CaB4857487E3a1; // address for ethereum 2\n    address  escrow = 0x7eDE8260e573d3A3dDfc058f19309DF5a1f7397E; // address for freezing support's tokens 3\n    address  bounty = 0x7B97BF2df716932aaED4DfF09806D97b70C165d6; // адрес для баунти токенов 4\n    address  privateInvestors = 0xADc50Ae48B4D97a140eC0f037e85e7a0B13453C4; // счет для средст инветосров PreICO 5\n    address  developers = 0x7c64258824cf4058AACe9490823974bdEA5f366e; // 6\n    address  founders = 0x253579153746cD2D09C89e73810E369ac6F16115; // 7\n\n    uint public startICO = 1521096610; // 1522458000  /03/31/2018 @ 1:00am (UTC) (GMT+1)\n    // start TokenSale block\n    uint public endICO = startICO + 604800;//2813100; // + 5 days\n    // End TokenSale block\n    uint  privateSaleTokens = 46200000;\n    // tokens for participants preICO\n    uint  foundersReserve = 10000000;\n    // frozen tokens for Founders\n    uint  developmentReserve = 20500000;\n    // frozen tokens for Founders\n    uint  bountyReserve = 3500000;\n    // tokes for bounty program\n    uint public individualRoundCap; // от номера\n    // variable for\n    uint public hardCap = 1421640000000000000000;\n    // 1421.64 ether\n    uint256 public investors; // количество инвесторов проекта\n    uint256 public membersWhiteList;\n\n    bool public isFinalized = false;\n    bool  distribute = false;\n\n    uint public weisRaised;\n    //\n\n    mapping (address => uint256) public frozenBounty;\n    mapping (address => uint256) public frozenDevelopers;\n    mapping (address => uint256) public frozenFounders;\n\n    mapping (address => bool) onChain; // для количества инвесторов\n    address[] tokenHolders;\n\n    //белый лист участников\n    mapping (address => bool) whitelist;\n    // индексное соответствие\n    mapping (address => uint256) public moneySpent;\n    //\n\n    address[] public _whitelist = [\n    0x253579153746cD2D09C89e73810E369ac6F16115, 0x2Ab1dF22ef514ab94518862082E653457A5c1aFc,\n    0x33648E28d3745218b78108016B9a138ab1e6dA2C, 0xD4B65C7759460aaDB4CE4735db8037976CB115bb,\n    0x7d5874aDD89B0755510730dDedb5f3Ce6929d8B2, 0x0B529De38cF76901451E540A6fEE68Dd1bc2b4B3,\n    0xB820e7Fc5Df201EDe64Af765f51fBC4BAD17eb1F, 0x81Cfe8eFdb6c7B7218DDd5F6bda3AA4cd1554Fd2,\n    0xC032D3fCA001b73e8cC3be0B75772329395caA49]; // массив адресов вайтлиста\n\n    event Finalized();\n\n    modifier isUnderHardCap() {\n        require(weisRaised <= hardCap);\n        _;\n    }\n\n\n    function WhalesburgCrowdsale() public TokenERC20(100000000, \"Whalesburg Token\", \"WBT\") {\n\n        addWhiteList();\n\n        distributionTokens();\n    }\n\n    // функция добавляет адреса в вайт лист\n    function addWhiteList() internal{\n\n        for (uint i=0; i<_whitelist.length; i++) {\n\n            whitelist[_whitelist[i]] = true;\n\n            membersWhiteList =_whitelist.length;\n        }\n    }\n\n\n    function finalize() onlyOwner public {\n\n        require(!isFinalized);\n\n        require(now > endICO || weisRaised > hardCap);\n\n        Finalized();\n\n        isFinalized = true;\n\n        burn(avaliableSupply);\n\n        balanceOf[this] = 0;\n    }\n\n\n    function distributionTokens() internal {\n\n        require(!distribute);\n        // отправили средства баунти\n        _transfer(this, bounty, bountyReserve*DEC);\n        // отправили средства ранних инветосторов\n        _transfer(this, privateInvestors, privateSaleTokens*DEC);\n        // отправили средства для заморозки (developmentReserve+foundersReserve)\n        _transfer(this, escrow, (developmentReserve+foundersReserve)*DEC);\n        // записать маппинги\n        avaliableSupply -= 80200000*DEC;\n\n        distribute = true;\n    }\n\n\n    function sell(address _investor, uint256 amount) internal {\n\n        uint256 _amount = amount.mul(DEC).div(buyPrice);\n\n        require(amount > avaliableSupply);\n\n        avaliableSupply -= _amount;\n\n        _transfer(this, _investor, _amount);\n\n        if (!onChain[msg.sender]) {\n\n            tokenHolders.push(msg.sender);\n\n            onChain[msg.sender] = true;\n        }\n\n        investors = tokenHolders.length;\n    }\n\n\n    function () isUnderHardCap public payable {\n\n        if(isWhitelisted(msg.sender)) { // verifacation that the sender is a member of WL\n\n            require(now > startICO && now < endICO); // chech ICO's date\n\n            currentSaleLimit();\n            //require(msg.value <= moneySpent[msg.sender]); // это сработает, но что если в процессе отправки он превысит лимит\n            moneySpent[msg.sender] = moneySpent[msg.sender].add(msg.value);\n\n            require(moneySpent[msg.sender] <= individualRoundCap);\n\n            assert(msg.value >= 1 ether / 20000);\n\n            sell(msg.sender, msg.value);\n\n            weisRaised = weisRaised.add(msg.value);\n\n            multisig.transfer(msg.value);\n\n        }\n        else {\n\n            revert();\n        }\n    }\n\n    function isWhitelisted(address who) public view returns(bool) {\n\n        return whitelist[who];\n    }\n\n\n    function currentSaleLimit() internal {\n\n        if(now > startICO && now <  startICO + 7200 ) { //первые 2 часа с начала\n\n            individualRoundCap = 500000000000000000; //0,5 ETH\n        }\n        else if(now >= startICO + 7200 && now < startICO + 14400) { //следующие 2 часа\n\n            individualRoundCap = 2000000000000000000; // 2 ETH\n        }\n        else if(now >= startICO + 14400 && now < startICO + 86400) { // следующие 20 часов\n\n            individualRoundCap = 10000000000000000000; // 10 ETH\n        }\n        else if(now >= startICO + 86400 && now < endICO) { // следующие 6 дней\n\n            individualRoundCap = hardCap; //1400 ETH\n        }\n        else {\n\n            revert();\n        }\n    }\n\n\n    function tokenTransferFromHolding(address _to, uint sum) public  {\n\n        require(now > endICO);\n        require(msg.sender == developers || msg.sender == owner || msg.sender == founders);\n\n        if (msg.sender == developers || msg.sender == owner) { // !!!нет параметров распределения\n\n            frozenDevelopers[developers] = frozenDevelopers[developers].add(sum);\n\n            require(frozenDevelopers[developers] <= developmentReserve);\n\n            _transfer(escrow, _to, sum*DEC);\n        }\n\n        else if (msg.sender == founders  && now > 1553990400) {\n\n            frozenFounders[founders] = frozenFounders[founders].add(sum);\n\n            require(frozenFounders[founders] <= foundersReserve);\n\n            _transfer(escrow, _to, sum*DEC);\n        }\n        else {\n\n            revert();\n        }\n    }\n}",
  "sourcePath": "/Users/ivanborisov/Yandex.Disk.localized/IT/WorkProjects/Portfolio_SK/WL~project/contracts/SL_WL_contract.sol",
  "compiler": {
    "name": "solc",
    "version": "0.4.19+commit.c4cbbb05.Emscripten.clang"
  },
  "schemaVersion": "2.0.0",
  "updatedAt": "2018-03-15T09:40:28.511Z"
}