{
  "contractName": "WhalesburgCrowdsale",
  "abi": [
    {
      "constant": true,
      "inputs": [],
      "name": "avaliableSupply",
      "outputs": [
        {
          "name": "",
          "type": "uint256"
        }
      ],
      "payable": false,
      "stateMutability": "view",
      "type": "function"
    },
    {
      "constant": true,
      "inputs": [],
      "name": "name",
      "outputs": [
        {
          "name": "",
          "type": "string"
        }
      ],
      "payable": false,
      "stateMutability": "view",
      "type": "function"
    },
    {
      "constant": true,
      "inputs": [],
      "name": "membersWhiteList",
      "outputs": [
        {
          "name": "",
          "type": "uint256"
        }
      ],
      "payable": false,
      "stateMutability": "view",
      "type": "function"
    },
    {
      "constant": true,
      "inputs": [],
      "name": "totalSupply",
      "outputs": [
        {
          "name": "",
          "type": "uint256"
        }
      ],
      "payable": false,
      "stateMutability": "view",
      "type": "function"
    },
    {
      "constant": true,
      "inputs": [],
      "name": "decimals",
      "outputs": [
        {
          "name": "",
          "type": "uint256"
        }
      ],
      "payable": false,
      "stateMutability": "view",
      "type": "function"
    },
    {
      "constant": true,
      "inputs": [],
      "name": "multisig",
      "outputs": [
        {
          "name": "",
          "type": "address"
        }
      ],
      "payable": false,
      "stateMutability": "view",
      "type": "function"
    },
    {
      "constant": true,
      "inputs": [],
      "name": "endICO",
      "outputs": [
        {
          "name": "",
          "type": "uint256"
        }
      ],
      "payable": false,
      "stateMutability": "view",
      "type": "function"
    },
    {
      "constant": true,
      "inputs": [
        {
          "name": "",
          "type": "address"
        }
      ],
      "name": "balanceOf",
      "outputs": [
        {
          "name": "",
          "type": "uint256"
        }
      ],
      "payable": false,
      "stateMutability": "view",
      "type": "function"
    },
    {
      "constant": true,
      "inputs": [],
      "name": "startICO",
      "outputs": [
        {
          "name": "",
          "type": "uint256"
        }
      ],
      "payable": false,
      "stateMutability": "view",
      "type": "function"
    },
    {
      "constant": true,
      "inputs": [],
      "name": "buyPrice",
      "outputs": [
        {
          "name": "",
          "type": "uint256"
        }
      ],
      "payable": false,
      "stateMutability": "view",
      "type": "function"
    },
    {
      "constant": true,
      "inputs": [],
      "name": "investors",
      "outputs": [
        {
          "name": "",
          "type": "uint256"
        }
      ],
      "payable": false,
      "stateMutability": "view",
      "type": "function"
    },
    {
      "constant": true,
      "inputs": [],
      "name": "isFinalized",
      "outputs": [
        {
          "name": "",
          "type": "bool"
        }
      ],
      "payable": false,
      "stateMutability": "view",
      "type": "function"
    },
    {
      "constant": true,
      "inputs": [],
      "name": "owner",
      "outputs": [
        {
          "name": "",
          "type": "address"
        }
      ],
      "payable": false,
      "stateMutability": "view",
      "type": "function"
    },
    {
      "constant": true,
      "inputs": [],
      "name": "individualRoundCap",
      "outputs": [
        {
          "name": "",
          "type": "uint256"
        }
      ],
      "payable": false,
      "stateMutability": "view",
      "type": "function"
    },
    {
      "constant": true,
      "inputs": [],
      "name": "symbol",
      "outputs": [
        {
          "name": "",
          "type": "string"
        }
      ],
      "payable": false,
      "stateMutability": "view",
      "type": "function"
    },
    {
      "constant": false,
      "inputs": [
        {
          "name": "_to",
          "type": "address"
        },
        {
          "name": "_value",
          "type": "uint256"
        }
      ],
      "name": "transfer",
      "outputs": [],
      "payable": false,
      "stateMutability": "nonpayable",
      "type": "function"
    },
    {
      "constant": true,
      "inputs": [
        {
          "name": "",
          "type": "uint256"
        }
      ],
      "name": "_whitelist",
      "outputs": [
        {
          "name": "",
          "type": "address"
        }
      ],
      "payable": false,
      "stateMutability": "view",
      "type": "function"
    },
    {
      "constant": true,
      "inputs": [
        {
          "name": "",
          "type": "address"
        }
      ],
      "name": "moneySpent",
      "outputs": [
        {
          "name": "",
          "type": "uint256"
        }
      ],
      "payable": false,
      "stateMutability": "view",
      "type": "function"
    },
    {
      "constant": true,
      "inputs": [],
      "name": "weisRaised",
      "outputs": [
        {
          "name": "",
          "type": "uint256"
        }
      ],
      "payable": false,
      "stateMutability": "view",
      "type": "function"
    },
    {
      "constant": true,
      "inputs": [],
      "name": "hardCap",
      "outputs": [
        {
          "name": "",
          "type": "uint256"
        }
      ],
      "payable": false,
      "stateMutability": "view",
      "type": "function"
    },
    {
      "inputs": [],
      "payable": false,
      "stateMutability": "nonpayable",
      "type": "constructor"
    },
    {
      "payable": true,
      "stateMutability": "payable",
      "type": "fallback"
    },
    {
      "anonymous": false,
      "inputs": [],
      "name": "Finalized",
      "type": "event"
    },
    {
      "anonymous": false,
      "inputs": [
        {
          "indexed": true,
          "name": "from",
          "type": "address"
        },
        {
          "indexed": true,
          "name": "to",
          "type": "address"
        },
        {
          "indexed": false,
          "name": "value",
          "type": "uint256"
        }
      ],
      "name": "Transfer",
      "type": "event"
    },
    {
      "anonymous": false,
      "inputs": [
        {
          "indexed": true,
          "name": "from",
          "type": "address"
        },
        {
          "indexed": false,
          "name": "value",
          "type": "uint256"
        }
      ],
      "name": "Burn",
      "type": "event"
    },
    {
      "constant": false,
      "inputs": [],
      "name": "finalize",
      "outputs": [],
      "payable": false,
      "stateMutability": "nonpayable",
      "type": "function"
    },
    {
      "constant": true,
      "inputs": [
        {
          "name": "who",
          "type": "address"
        }
      ],
      "name": "isWhitelisted",
      "outputs": [
        {
          "name": "",
          "type": "bool"
        }
      ],
      "payable": false,
      "stateMutability": "view",
      "type": "function"
    },
    {
      "constant": false,
      "inputs": [
        {
          "name": "_to",
          "type": "address"
        },
        {
          "name": "sum",
          "type": "uint256"
        }
      ],
      "name": "tokenTransferFromHolding",
      "outputs": [],
      "payable": false,
      "stateMutability": "nonpayable",
      "type": "function"
    }
  ],
  "bytecode": "0x60606040526008600355600354600a0a60045573ce66e79f59eafacaf4cabaa317cab4857487e3a1600960006101000a81548173ffffffffffffffffffffffffffffffffffffffff021916908373ffffffffffffffffffffffffffffffffffffffff160217905550737ede8260e573d3a3ddfc058f19309df5a1f7397e600a60006101000a81548173ffffffffffffffffffffffffffffffffffffffff021916908373ffffffffffffffffffffffffffffffffffffffff160217905550737b97bf2df716932aaed4dff09806d97b70c165d6600b60006101000a81548173ffffffffffffffffffffffffffffffffffffffff021916908373ffffffffffffffffffffffffffffffffffffffff16021790555073adc50ae48b4d97a140ec0f037e85e7a0b13453c4600c60006101000a81548173ffffffffffffffffffffffffffffffffffffffff021916908373ffffffffffffffffffffffffffffffffffffffff160217905550737c64258824cf4058aace9490823974bdea5f366e600d60006101000a81548173ffffffffffffffffffffffffffffffffffffffff021916908373ffffffffffffffffffffffffffffffffffffffff16021790555073253579153746cd2d09c89e73810e369ac6f16115600e60006101000a81548173ffffffffffffffffffffffffffffffffffffffff021916908373ffffffffffffffffffffffffffffffffffffffff160217905550635aa79b2d600f5562093a80600f54016010556302c0f4c060115562989680601255630138ce20601355623567e0601455684d1137dfd4165400006016556000601960006101000a81548160ff0219169083151502179055506000601960016101000a81548160ff0219169083151502179055506101206040519081016040528073253579153746cd2d09c89e73810e369ac6f1611573ffffffffffffffffffffffffffffffffffffffff1673ffffffffffffffffffffffffffffffffffffffff168152602001732ab1df22ef514ab94518862082e653457a5c1afc73ffffffffffffffffffffffffffffffffffffffff1673ffffffffffffffffffffffffffffffffffffffff1681526020017333648e28d3745218b78108016b9a138ab1e6da2c73ffffffffffffffffffffffffffffffffffffffff1673ffffffffffffffffffffffffffffffffffffffff16815260200173d4b65c7759460aadb4ce4735db8037976cb115bb73ffffffffffffffffffffffffffffffffffffffff1673ffffffffffffffffffffffffffffffffffffffff168152602001737d5874add89b0755510730ddedb5f3ce6929d8b273ffffffffffffffffffffffffffffffffffffffff1673ffffffffffffffffffffffffffffffffffffffff168152602001730b529de38cf76901451e540a6fee68dd1bc2b4b373ffffffffffffffffffffffffffffffffffffffff1673ffffffffffffffffffffffffffffffffffffffff16815260200173b820e7fc5df201ede64af765f51fbc4bad17eb1f73ffffffffffffffffffffffffffffffffffffffff1673ffffffffffffffffffffffffffffffffffffffff1681526020017381cfe8efdb6c7b7218ddd5f6bda3aa4cd1554fd273ffffffffffffffffffffffffffffffffffffffff1673ffffffffffffffffffffffffffffffffffffffff16815260200173c032d3fca001b73e8cc3be0b75772329395caa4973ffffffffffffffffffffffffffffffffffffffff1673ffffffffffffffffffffffffffffffffffffffff1681525060229060096200051792919062000c33565b5034156200052457600080fd5b6305f5e1006040805190810160405280601081526020017f5768616c65736275726720546f6b656e000000000000000000000000000000008152506040805190810160405280600381526020017f5742540000000000000000000000000000000000000000000000000000000000815250336000806101000a81548173ffffffffffffffffffffffffffffffffffffffff021916908373ffffffffffffffffffffffffffffffffffffffff1602179055506004548302600681905550600654600860003073ffffffffffffffffffffffffffffffffffffffff1673ffffffffffffffffffffffffffffffffffffffff16815260200190815260200160002081905550600860003073ffffffffffffffffffffffffffffffffffffffff1673ffffffffffffffffffffffffffffffffffffffff1681526020019081526020016000205460078190555081600190805190602001906200068492919062000cc2565b5080600290805190602001906200069d92919062000cc2565b5033600560006101000a81548173ffffffffffffffffffffffffffffffffffffffff021916908373ffffffffffffffffffffffffffffffffffffffff160217905550505050620007006200072464010000000002620017b8176401000000009004565b6200071e620007e86401000000000262001879176401000000009004565b62000db7565b60008090505b602280549050811015620007e5576001602060006022848154811015156200074e57fe5b906000526020600020900160009054906101000a900473ffffffffffffffffffffffffffffffffffffffff1673ffffffffffffffffffffffffffffffffffffffff1673ffffffffffffffffffffffffffffffffffffffff16815260200190815260200160002060006101000a81548160ff02191690831515021790555060228054905060188190555080806001019150506200072a565b50565b601960019054906101000a900460ff161515156200080557600080fd5b6200084e30600b60009054906101000a900473ffffffffffffffffffffffffffffffffffffffff166004546014540262000919640100000000026200137d176401000000009004565b6200089730600c60009054906101000a900473ffffffffffffffffffffffffffffffffffffffff166004546011540262000919640100000000026200137d176401000000009004565b620008e430600a60009054906101000a900473ffffffffffffffffffffffffffffffffffffffff16600454601254601354010262000919640100000000026200137d176401000000009004565b6004546304c7c140026007600082825403925050819055506001601960016101000a81548160ff021916908315150217905550565b6000808373ffffffffffffffffffffffffffffffffffffffff16141515156200094157600080fd5b81600860008673ffffffffffffffffffffffffffffffffffffffff1673ffffffffffffffffffffffffffffffffffffffff16815260200190815260200160002054101515156200099057600080fd5b600860008473ffffffffffffffffffffffffffffffffffffffff1673ffffffffffffffffffffffffffffffffffffffff1681526020019081526020016000205482600860008673ffffffffffffffffffffffffffffffffffffffff1673ffffffffffffffffffffffffffffffffffffffff168152602001908152602001600020540111151562000a1f57600080fd5b600860008473ffffffffffffffffffffffffffffffffffffffff1673ffffffffffffffffffffffffffffffffffffffff16815260200190815260200160002054600860008673ffffffffffffffffffffffffffffffffffffffff1673ffffffffffffffffffffffffffffffffffffffff1681526020019081526020016000205401905081600860008673ffffffffffffffffffffffffffffffffffffffff1673ffffffffffffffffffffffffffffffffffffffff1681526020019081526020016000206000828254039250508190555081600860008573ffffffffffffffffffffffffffffffffffffffff1673ffffffffffffffffffffffffffffffffffffffff168152602001908152602001600020600082825401925050819055508273ffffffffffffffffffffffffffffffffffffffff168473ffffffffffffffffffffffffffffffffffffffff167fddf252ad1be2c89b69c2b068fc378daa952ba7f163c4a11628f55a4df523b3ef846040518082815260200191505060405180910390a380600860008573ffffffffffffffffffffffffffffffffffffffff1673ffffffffffffffffffffffffffffffffffffffff16815260200190815260200160002054600860008773ffffffffffffffffffffffffffffffffffffffff1673ffffffffffffffffffffffffffffffffffffffff168152602001908152602001600020540114151562000c2d57fe5b50505050565b82805482825590600052602060002090810192821562000caf579160200282015b8281111562000cae5782518260006101000a81548173ffffffffffffffffffffffffffffffffffffffff021916908373ffffffffffffffffffffffffffffffffffffffff1602179055509160200191906001019062000c54565b5b50905062000cbe919062000d49565b5090565b828054600181600116156101000203166002900490600052602060002090601f016020900481019282601f1062000d0557805160ff191683800117855562000d36565b8280016001018555821562000d36579182015b8281111562000d3557825182559160200191906001019062000d18565b5b50905062000d45919062000d8f565b5090565b62000d8c91905b8082111562000d8857600081816101000a81549073ffffffffffffffffffffffffffffffffffffffff02191690555060010162000d50565b5090565b90565b62000db491905b8082111562000db057600081600090555060010162000d96565b5090565b90565b6119938062000dc76000396000f300606060405260043610610133576000357c0100000000000000000000000000000000000000000000000000000000900463ffffffff16806304a849381461030357806306fdde031461032c5780630aa1ee4c146103ba57806318160ddd146103e3578063313ce5671461040c5780633af32abf146104355780634783c35b146104865780634bb278f3146104db5780634f248409146104f057806370a08231146105195780637fa8c158146105665780638620410b1461058f5780638ac27f5f146105b85780638d4e4083146105e15780638da5cb5b1461060e5780638e7fffe81461066357806395d89b411461068c5780639e331d9d1461071a578063a9059cbb1461075c578063ac0a86c51461079e578063b4fce4f414610801578063da5f838d1461084e578063fb86a40414610877575b601654601a541115151561014657600080fd5b61014f336108a0565b156102fc57600f5442118015610166575060105442105b151561017157600080fd5b6101796108f6565b6101cb34602160003373ffffffffffffffffffffffffffffffffffffffff1673ffffffffffffffffffffffffffffffffffffffff168152602001908152602001600020546109c390919063ffffffff16565b602160003373ffffffffffffffffffffffffffffffffffffffff1673ffffffffffffffffffffffffffffffffffffffff16815260200190815260200160002081905550601554602160003373ffffffffffffffffffffffffffffffffffffffff1673ffffffffffffffffffffffffffffffffffffffff168152602001908152602001600020541115151561025e57600080fd5b652d79883d2000341015151561027057fe5b61027a33346109e1565b61028f34601a546109c390919063ffffffff16565b601a81905550600960009054906101000a900473ffffffffffffffffffffffffffffffffffffffff1673ffffffffffffffffffffffffffffffffffffffff166108fc349081150290604051600060405180830381858888f1935050505015156102f757600080fd5b610301565b600080fd5b005b341561030e57600080fd5b610316610b5d565b6040518082815260200191505060405180910390f35b341561033757600080fd5b61033f610b63565b6040518080602001828103825283818151815260200191508051906020019080838360005b8381101561037f578082015181840152602081019050610364565b50505050905090810190601f1680156103ac5780820380516001836020036101000a031916815260200191505b509250505060405180910390f35b34156103c557600080fd5b6103cd610c01565b6040518082815260200191505060405180910390f35b34156103ee57600080fd5b6103f6610c07565b6040518082815260200191505060405180910390f35b341561041757600080fd5b61041f610c0d565b6040518082815260200191505060405180910390f35b341561044057600080fd5b61046c600480803573ffffffffffffffffffffffffffffffffffffffff169060200190919050506108a0565b604051808215151515815260200191505060405180910390f35b341561049157600080fd5b610499610c13565b604051808273ffffffffffffffffffffffffffffffffffffffff1673ffffffffffffffffffffffffffffffffffffffff16815260200191505060405180910390f35b34156104e657600080fd5b6104ee610c39565b005b34156104fb57600080fd5b610503610d68565b6040518082815260200191505060405180910390f35b341561052457600080fd5b610550600480803573ffffffffffffffffffffffffffffffffffffffff16906020019091905050610d6e565b6040518082815260200191505060405180910390f35b341561057157600080fd5b610579610d86565b6040518082815260200191505060405180910390f35b341561059a57600080fd5b6105a2610d8c565b6040518082815260200191505060405180910390f35b34156105c357600080fd5b6105cb610d96565b6040518082815260200191505060405180910390f35b34156105ec57600080fd5b6105f4610d9c565b604051808215151515815260200191505060405180910390f35b341561061957600080fd5b610621610daf565b604051808273ffffffffffffffffffffffffffffffffffffffff1673ffffffffffffffffffffffffffffffffffffffff16815260200191505060405180910390f35b341561066e57600080fd5b610676610dd5565b6040518082815260200191505060405180910390f35b341561069757600080fd5b61069f610ddb565b6040518080602001828103825283818151815260200191508051906020019080838360005b838110156106df5780820151818401526020810190506106c4565b50505050905090810190601f16801561070c5780820380516001836020036101000a031916815260200191505b509250505060405180910390f35b341561072557600080fd5b61075a600480803573ffffffffffffffffffffffffffffffffffffffff16906020019091908035906020019091905050610e79565b005b341561076757600080fd5b61079c600480803573ffffffffffffffffffffffffffffffffffffffff169060200190919080359060200190919050506112b5565b005b34156107a957600080fd5b6107bf60048080359060200190919050506112c4565b604051808273ffffffffffffffffffffffffffffffffffffffff1673ffffffffffffffffffffffffffffffffffffffff16815260200191505060405180910390f35b341561080c57600080fd5b610838600480803573ffffffffffffffffffffffffffffffffffffffff16906020019091905050611303565b6040518082815260200191505060405180910390f35b341561085957600080fd5b61086161131b565b6040518082815260200191505060405180910390f35b341561088257600080fd5b61088a611321565b6040518082815260200191505060405180910390f35b6000602060008373ffffffffffffffffffffffffffffffffffffffff1673ffffffffffffffffffffffffffffffffffffffff16815260200190815260200160002060009054906101000a900460ff169050919050565b600f544211801561090c5750611c20600f540142105b15610925576706f05b59d3b200006015819055506109c1565b611c20600f540142101580156109405750613840600f540142105b1561095957671bc16d674ec800006015819055506109c0565b613840600f54014210158015610975575062015180600f540142105b1561098e57678ac7230489e800006015819055506109bf565b62015180600f540142101580156109a6575060105442105b156109b9576016546015819055506109be565b600080fd5b5b5b5b565b60008082840190508381101515156109d757fe5b8091505092915050565b6000610a1065414d3d7eb000610a026004548561132790919063ffffffff16565b61136290919063ffffffff16565b905060075482111515610a2257600080fd5b80600760008282540392505081905550610a3d30848361137d565b601e60003373ffffffffffffffffffffffffffffffffffffffff1673ffffffffffffffffffffffffffffffffffffffff16815260200190815260200160002060009054906101000a900460ff161515610b4c57601f8054806001018281610aa49190611767565b9160005260206000209001600033909190916101000a81548173ffffffffffffffffffffffffffffffffffffffff021916908373ffffffffffffffffffffffffffffffffffffffff160217905550506001601e60003373ffffffffffffffffffffffffffffffffffffffff1673ffffffffffffffffffffffffffffffffffffffff16815260200190815260200160002060006101000a81548160ff0219169083151502179055505b601f80549050601781905550505050565b60075481565b60018054600181600116156101000203166002900480601f016020809104026020016040519081016040528092919081815260200182805460018160011615610100020316600290048015610bf95780601f10610bce57610100808354040283529160200191610bf9565b820191906000526020600020905b815481529060010190602001808311610bdc57829003601f168201915b505050505081565b60185481565b60065481565b60035481565b600960009054906101000a900473ffffffffffffffffffffffffffffffffffffffff1681565b6000809054906101000a900473ffffffffffffffffffffffffffffffffffffffff1673ffffffffffffffffffffffffffffffffffffffff163373ffffffffffffffffffffffffffffffffffffffff16141515610c9457600080fd5b601960009054906101000a900460ff16151515610cb057600080fd5b601054421180610cc35750601654601a54115b1515610cce57600080fd5b7f6823b073d48d6e3a7d385eeb601452d680e74bb46afe3255a7d778f3a9b1768160405160405180910390a16001601960006101000a81548160ff021916908315150217905550610d20600754611693565b506000600860003073ffffffffffffffffffffffffffffffffffffffff1673ffffffffffffffffffffffffffffffffffffffff16815260200190815260200160002081905550565b60105481565b60086020528060005260406000206000915090505481565b600f5481565b65414d3d7eb00081565b60175481565b601960009054906101000a900460ff1681565b600560009054906101000a900473ffffffffffffffffffffffffffffffffffffffff1681565b60155481565b60028054600181600116156101000203166002900480601f016020809104026020016040519081016040528092919081815260200182805460018160011615610100020316600290048015610e715780601f10610e4657610100808354040283529160200191610e71565b820191906000526020600020905b815481529060010190602001808311610e5457829003601f168201915b505050505081565b60105442111515610e8957600080fd5b600d60009054906101000a900473ffffffffffffffffffffffffffffffffffffffff1673ffffffffffffffffffffffffffffffffffffffff163373ffffffffffffffffffffffffffffffffffffffff16148015610ee7575060105442115b80610f3f5750600560009054906101000a900473ffffffffffffffffffffffffffffffffffffffff1673ffffffffffffffffffffffffffffffffffffffff163373ffffffffffffffffffffffffffffffffffffffff16145b156110c557610fb881601c6000600d60009054906101000a900473ffffffffffffffffffffffffffffffffffffffff1673ffffffffffffffffffffffffffffffffffffffff1673ffffffffffffffffffffffffffffffffffffffff168152602001908152602001600020546109c390919063ffffffff16565b601c6000600d60009054906101000a900473ffffffffffffffffffffffffffffffffffffffff1673ffffffffffffffffffffffffffffffffffffffff1673ffffffffffffffffffffffffffffffffffffffff16815260200190815260200160002081905550601354601c6000600d60009054906101000a900473ffffffffffffffffffffffffffffffffffffffff1673ffffffffffffffffffffffffffffffffffffffff1673ffffffffffffffffffffffffffffffffffffffff168152602001908152602001600020541115151561108f57600080fd5b6110c0600a60009054906101000a900473ffffffffffffffffffffffffffffffffffffffff1683600454840261137d565b6112b1565b600e60009054906101000a900473ffffffffffffffffffffffffffffffffffffffff1673ffffffffffffffffffffffffffffffffffffffff163373ffffffffffffffffffffffffffffffffffffffff161480156111255750635ca0030042115b156112ab5761119e81601d6000600e60009054906101000a900473ffffffffffffffffffffffffffffffffffffffff1673ffffffffffffffffffffffffffffffffffffffff1673ffffffffffffffffffffffffffffffffffffffff168152602001908152602001600020546109c390919063ffffffff16565b601d6000600e60009054906101000a900473ffffffffffffffffffffffffffffffffffffffff1673ffffffffffffffffffffffffffffffffffffffff1673ffffffffffffffffffffffffffffffffffffffff16815260200190815260200160002081905550601254601d6000600e60009054906101000a900473ffffffffffffffffffffffffffffffffffffffff1673ffffffffffffffffffffffffffffffffffffffff1673ffffffffffffffffffffffffffffffffffffffff168152602001908152602001600020541115151561127557600080fd5b6112a6600a60009054906101000a900473ffffffffffffffffffffffffffffffffffffffff1683600454840261137d565b6112b0565b600080fd5b5b5050565b6112c033838361137d565b5050565b6022818154811015156112d357fe5b90600052602060002090016000915054906101000a900473ffffffffffffffffffffffffffffffffffffffff1681565b60216020528060005260406000206000915090505481565b601a5481565b60165481565b600080600084141561133c576000915061135b565b828402905082848281151561134d57fe5b0414151561135757fe5b8091505b5092915050565b600080828481151561137057fe5b0490508091505092915050565b6000808373ffffffffffffffffffffffffffffffffffffffff16141515156113a457600080fd5b81600860008673ffffffffffffffffffffffffffffffffffffffff1673ffffffffffffffffffffffffffffffffffffffff16815260200190815260200160002054101515156113f257600080fd5b600860008473ffffffffffffffffffffffffffffffffffffffff1673ffffffffffffffffffffffffffffffffffffffff1681526020019081526020016000205482600860008673ffffffffffffffffffffffffffffffffffffffff1673ffffffffffffffffffffffffffffffffffffffff168152602001908152602001600020540111151561148057600080fd5b600860008473ffffffffffffffffffffffffffffffffffffffff1673ffffffffffffffffffffffffffffffffffffffff16815260200190815260200160002054600860008673ffffffffffffffffffffffffffffffffffffffff1673ffffffffffffffffffffffffffffffffffffffff1681526020019081526020016000205401905081600860008673ffffffffffffffffffffffffffffffffffffffff1673ffffffffffffffffffffffffffffffffffffffff1681526020019081526020016000206000828254039250508190555081600860008573ffffffffffffffffffffffffffffffffffffffff1673ffffffffffffffffffffffffffffffffffffffff168152602001908152602001600020600082825401925050819055508273ffffffffffffffffffffffffffffffffffffffff168473ffffffffffffffffffffffffffffffffffffffff167fddf252ad1be2c89b69c2b068fc378daa952ba7f163c4a11628f55a4df523b3ef846040518082815260200191505060405180910390a380600860008573ffffffffffffffffffffffffffffffffffffffff1673ffffffffffffffffffffffffffffffffffffffff16815260200190815260200160002054600860008773ffffffffffffffffffffffffffffffffffffffff1673ffffffffffffffffffffffffffffffffffffffff168152602001908152602001600020540114151561168d57fe5b50505050565b60008060009054906101000a900473ffffffffffffffffffffffffffffffffffffffff1673ffffffffffffffffffffffffffffffffffffffff163373ffffffffffffffffffffffffffffffffffffffff161415156116f057600080fd5b81600660008282540392505081905550816007600082825403925050819055503073ffffffffffffffffffffffffffffffffffffffff167fcc16f5dbb4873280815c1ee09dbd06736cffcc184412cf7a71a0fdb75d397ca5836040518082815260200191505060405180910390a260019050919050565b81548183558181151161178e5781836000526020600020918201910161178d9190611793565b5b505050565b6117b591905b808211156117b1576000816000905550600101611799565b5090565b90565b60008090505b602280549050811015611876576001602060006022848154811015156117e057fe5b906000526020600020900160009054906101000a900473ffffffffffffffffffffffffffffffffffffffff1673ffffffffffffffffffffffffffffffffffffffff1673ffffffffffffffffffffffffffffffffffffffff16815260200190815260200160002060006101000a81548160ff02191690831515021790555060228054905060188190555080806001019150506117be565b50565b601960019054906101000a900460ff1615151561189557600080fd5b6118c830600b60009054906101000a900473ffffffffffffffffffffffffffffffffffffffff166004546014540261137d565b6118fb30600c60009054906101000a900473ffffffffffffffffffffffffffffffffffffffff166004546011540261137d565b61193230600a60009054906101000a900473ffffffffffffffffffffffffffffffffffffffff16600454601254601354010261137d565b6004546304c7c140026007600082825403925050819055506001601960016101000a81548160ff0219169083151502179055505600a165627a7a72305820c5978a24f3ab92973b69437493e15230c84c3216a97b68dcee0fa2f7eee28f400029",
  "source": "/*\ntotalSupply -   \n\n-            -   \n\n(+)       \n(+)      \n\n(+)        \n\n(+)     -    \n(+)     -   -    -    \n\n      WhiteList\n\n - 8-9  -  \n ganashe\n\n  Crowdsale:\n\n(+)     function maxDayLimit (    ) - 20 \n(+)      payable\n(+)     WhiteList -       ICO() - 10 \n(+)         =  WhiteList   payable\n(+)     - tokenTransferFromHolding -      escrow\n(+)     -    -\n(+)     - finalize - complete\n(+)     -   3800 eth complete\n\n web3.js\nbalanseOf\nWeiRaised\n*/\npragma solidity ^0.4.18;\n\n/*\n* @author Ivan Borisov (2622610@gmail.com) (Github.com/pillardevelopment)\n* @dev Source code hence -\n* https://github.com/PillarDevelopment/Barbarossa-Git/blob/master/contracts/BarbarossaInvestToken.sol\n*\n*/\n/*********************************************************************************************************************\n * @title SafeMath\n * @dev Math operations with safety checks that throw on error\n */\nlibrary SafeMath {\n    /**\n    * @dev Multiplies two numbers, throws on overflow.\n    */\n    function mul(uint256 a, uint256 b) internal pure returns (uint256) {\n        if (a == 0) {\n            return 0;\n        }\n        uint256 c = a * b;\n        assert(c / a == b);\n        return c;\n    }\n    /**\n    * @dev Integer division of two numbers, truncating the quotient.\n    */\n    function div(uint256 a, uint256 b) internal pure returns (uint256) {\n        // assert(b > 0); // Solidity automatically throws when dividing by 0\n        uint256 c = a / b;\n        // assert(a == b * c + a % b); // There is no case in which this doesn't hold\n        return c;\n    }\n    /**\n    * @dev Substracts two numbers, throws on overflow (i.e. if subtrahend is greater than minuend).\n    */\n    function sub(uint256 a, uint256 b) internal pure returns (uint256) {\n        assert(b <= a);\n        return a - b;\n    }\n    /**\n    * @dev Adds two numbers, throws on overflow.\n    */\n    function add(uint256 a, uint256 b) internal pure returns (uint256) {\n        uint256 c = a + b;\n        assert(c >= a);\n        return c;\n    }\n}\n/*********************************************************************************************************************\n * @title Ownable\n * @dev The Ownable contract has an owner address, and provides basic authorization control\n * functions, this simplifies the implementation of \"user permissions\".\n */\ncontract Ownable {\n    address public owner;\n    /**\n     * @dev The Ownable constructor sets the original `owner` of the contract to the sender\n     * account.\n     */\n    function Ownable() public {\n        owner = msg.sender;\n    }\n    /**\n     * @dev Throws if called by any account other than the owner.\n     */\n    modifier onlyOwner() {\n        require(msg.sender == owner);\n        _;\n    }\n}\n/*********************************************************************************************************************\n* @dev see https://github.com/ethereum/EIPs/issues/20\n*/\ncontract TokenERC20 is Ownable {\n    using SafeMath for uint;\n\n    string public name;\n    string public symbol;\n    //!!!!!!!!!!    !!!!!!!!!!!!!!!!!!!\n    uint256 public decimals = 8; //!!!!!!!!!!!!!\n    //!!!!!!!!!!!!!!!!!!!!!!!!!!!!!!!!!!!!!!!\n\n    uint256 DEC = 10 ** uint256(decimals);\n    address public owner;\n    uint256 public totalSupply;\n    uint256 public avaliableSupply;\n    uint256 public constant buyPrice = 71800000000000;\n\n    mapping (address => uint256) public balanceOf;\n\n    event Transfer(address indexed from, address indexed to, uint256 value);\n    event Burn(address indexed from, uint256 value);\n\n    function TokenERC20(\n        uint256 initialSupply,\n        string tokenName,\n        string tokenSymbol\n    ) public\n    {\n        totalSupply = initialSupply * DEC;\n        balanceOf[this] = totalSupply;\n        avaliableSupply = balanceOf[this];\n        name = tokenName;\n        symbol = tokenSymbol;\n        owner = msg.sender;\n    }\n\n    function _transfer(address _from, address _to, uint256 _value) internal {\n        require(_to != 0x0);\n        require(balanceOf[_from] >= _value);\n        require(balanceOf[_to] + _value > balanceOf[_to]);\n        uint previousBalances = balanceOf[_from] + balanceOf[_to];\n        balanceOf[_from] -= _value;\n        balanceOf[_to] += _value;\n        Transfer(_from, _to, _value);\n        assert(balanceOf[_from] + balanceOf[_to] == previousBalances);\n    }\n\n    function transfer(address _to, uint256 _value) public {\n        _transfer(msg.sender, _to, _value);\n    }\n\n    function burn(uint256 _value) internal onlyOwner returns (bool success) {//balanceOf[msg.sender] -= _value;\n        totalSupply -= _value;\n        avaliableSupply -= _value;\n        Burn(this, _value);\n        return true;\n    }\n}\ncontract WhalesburgCrowdsale is TokenERC20 {\n    using SafeMath for uint;\n\n    address public multisig = 0xCe66E79f59eafACaf4CaBaA317CaB4857487E3a1; // address for ethereum 2\n    address  escrow = 0x7eDE8260e573d3A3dDfc058f19309DF5a1f7397E; // address for freezing support's tokens 3\n    address  bounty = 0x7B97BF2df716932aaED4DfF09806D97b70C165d6; //     4\n    address  privateInvestors = 0xADc50Ae48B4D97a140eC0f037e85e7a0B13453C4; //     PreICO 5\n    address  developers = 0x7c64258824cf4058AACe9490823974bdEA5f366e; // 6\n    address  founders = 0x253579153746cD2D09C89e73810E369ac6F16115; // 7\n\n    uint public startICO = 1520933677; // 1522458000  /03/31/2018 @ 1:00am (UTC) (GMT+1)\n    // start TokenSale block\n    uint public endICO = startICO + 604800;//2813100; // + 5 days\n    // End TokenSale block\n    uint  privateSaleTokens = 46200000;\n    // tokens for participants preICO\n    uint  foundersReserve = 10000000;\n    // frozen tokens for Founders\n    uint  developmentReserve = 20500000;\n    // frozen tokens for Founders\n    uint  bountyReserve = 3500000;\n    // tokes for bounty program\n    uint public individualRoundCap; //  \n    // variable for\n    uint public hardCap = 1421640000000000000000;\n    // 1421.64 ether\n    uint256 public investors; //   \n    uint256 public membersWhiteList;\n\n    bool public isFinalized = false;\n    bool  distribute = false;\n\n    uint public weisRaised;\n    //\n\n    mapping (address => uint256) frozenBounty;\n    mapping (address => uint256) frozenDevelopers;\n    mapping (address => uint256) frozenFounders;\n\n    mapping (address => bool) onChain; //   \n    address[] tokenHolders;\n\n    //  \n    mapping (address => bool) whitelist;\n    //  \n    mapping (address => uint256) public moneySpent;\n    //\n\n    address[] public _whitelist = [\n    0x253579153746cD2D09C89e73810E369ac6F16115, 0x2Ab1dF22ef514ab94518862082E653457A5c1aFc,\n    0x33648E28d3745218b78108016B9a138ab1e6dA2C, 0xD4B65C7759460aaDB4CE4735db8037976CB115bb,\n    0x7d5874aDD89B0755510730dDedb5f3Ce6929d8B2, 0x0B529De38cF76901451E540A6fEE68Dd1bc2b4B3,\n    0xB820e7Fc5Df201EDe64Af765f51fBC4BAD17eb1F, 0x81Cfe8eFdb6c7B7218DDd5F6bda3AA4cd1554Fd2,\n    0xC032D3fCA001b73e8cC3be0B75772329395caA49]; //   \n\n    event Finalized();\n\n    modifier isUnderHardCap() {\n        require(weisRaised <= hardCap);\n        _;\n    }\n\n    modifier holdersSupport() { //    (team, consult, reserve, bounty)\n        require(msg.sender ==  developers|| msg.sender == founders || msg.sender == owner);\n        _;\n    }\n\n    function WhalesburgCrowdsale() public TokenERC20(100000000, \"Whalesburg Token\", \"WBT\") {\n\n        addWhiteList();\n\n        distributionTokens();\n    }\n\n    //      \n    function addWhiteList() internal{\n\n        for (uint i=0; i<_whitelist.length; i++) {\n\n            whitelist[_whitelist[i]] = true;\n\n            membersWhiteList =_whitelist.length;\n        }\n    }\n\n\n    function finalize() onlyOwner public {\n\n        require(!isFinalized); //     (   true)\n\n        require(now > endICO || weisRaised > hardCap); //       \n\n        Finalized();\n\n        isFinalized = true;\n\n        burn(avaliableSupply);\n\n        balanceOf[this] = 0;\n    }\n\n\n    function distributionTokens() internal {\n\n        require(!distribute);\n        //   \n        _transfer(this, bounty, bountyReserve*DEC);\n        //    \n        _transfer(this, privateInvestors, privateSaleTokens*DEC);\n        //     (developmentReserve+foundersReserve)\n        _transfer(this, escrow, (developmentReserve+foundersReserve)*DEC);\n        //  \n        avaliableSupply -= 80200000*DEC;\n\n        distribute = true;\n    }\n\n\n    function sell(address _investor, uint256 amount) internal {\n\n        uint256 _amount = amount.mul(DEC).div(buyPrice);\n\n        require(amount > avaliableSupply);\n\n        avaliableSupply -= _amount;\n\n        _transfer(this, _investor, _amount);\n\n        if (!onChain[msg.sender]) {\n\n            tokenHolders.push(msg.sender);\n\n            onChain[msg.sender] = true;\n        }\n\n        investors = tokenHolders.length; //   \n    }\n\n\n    function () isUnderHardCap public payable {\n\n        if(isWhitelisted(msg.sender)) { // verifacation that the sender is a member of WL\n\n            require(now > startICO && now < endICO); // chech ICO's date\n\n            currentSaleLimit(); // initialize current individualRoundCap\n            //require(msg.value <= moneySpent[msg.sender]); //  ,         \n            moneySpent[msg.sender] = moneySpent[msg.sender].add(msg.value);\n\n            require(moneySpent[msg.sender] <= individualRoundCap);\n\n            assert(msg.value >= 1 ether / 20000);\n\n            sell(msg.sender, msg.value);\n\n            weisRaised = weisRaised.add(msg.value);\n\n            multisig.transfer(msg.value);\n\n        }\n        else {\n\n            revert();\n        }\n    }\n\n    function isWhitelisted(address who) public view returns(bool) {\n\n        return whitelist[who];\n    }\n\n\n    function currentSaleLimit() internal {\n\n        if(now > startICO && now <  startICO + 7200 ) { // 2   \n\n            individualRoundCap = 500000000000000000; //0,5 ETH\n        }\n        else if(now >= startICO + 7200 && now < startICO + 14400) { // 2 \n\n            individualRoundCap = 2000000000000000000; // 2 ETH\n        }\n        else if(now >= startICO + 14400 && now < startICO + 86400) { //  20 \n\n            individualRoundCap = 10000000000000000000; // 10 ETH\n        }\n        else if(now >= startICO + 86400 && now < endICO) { //  6 \n\n            individualRoundCap = hardCap; //1400 ETH\n        }\n        else {\n\n            revert();\n        }\n    }\n\n\n    function tokenTransferFromHolding(address _to, uint sum) public  {\n\n        require(now > endICO);\n\n        if ((msg.sender == developers && now > endICO) || msg.sender == owner) { //   \n\n            frozenDevelopers[developers] = frozenDevelopers[developers].add(sum);\n\n            require(frozenDevelopers[developers] <= developmentReserve);\n\n            _transfer(escrow, _to, sum*DEC);\n        }\n\n        else if (msg.sender == founders  && now > 1553990400) {\n\n            frozenFounders[founders] = frozenFounders[founders].add(sum);\n\n            require(frozenFounders[founders] <= foundersReserve);\n\n            _transfer(escrow, _to, sum*DEC);\n        }\n        else {\n\n            revert();\n        }\n    }\n}",
  "sourcePath": "/Users/ivanborisov/Yandex.Disk.localized/IT/Work Projects/Portfolio_SK/WL~project/contracts/SL_WL_contract.sol",
  "compiler": {
    "name": "solc",
    "version": "0.4.19+commit.c4cbbb05.Emscripten.clang"
  },
  "schemaVersion": "2.0.0",
  "updatedAt": "2018-03-13T18:35:02.056Z"
}