{
  "contractName": "WhalesburgCrowdsale",
  "abi": [
    {
      "constant": true,
      "inputs": [],
      "name": "membersWhiteList",
      "outputs": [
        {
          "name": "",
          "type": "uint256"
        }
      ],
      "payable": false,
      "stateMutability": "view",
      "type": "function"
    },
    {
      "constant": true,
      "inputs": [],
      "name": "multisig",
      "outputs": [
        {
          "name": "",
          "type": "address"
        }
      ],
      "payable": false,
      "stateMutability": "view",
      "type": "function"
    },
    {
      "constant": true,
      "inputs": [],
      "name": "endICO",
      "outputs": [
        {
          "name": "",
          "type": "uint256"
        }
      ],
      "payable": false,
      "stateMutability": "view",
      "type": "function"
    },
    {
      "constant": true,
      "inputs": [],
      "name": "startICO",
      "outputs": [
        {
          "name": "",
          "type": "uint256"
        }
      ],
      "payable": false,
      "stateMutability": "view",
      "type": "function"
    },
    {
      "constant": true,
      "inputs": [],
      "name": "buyPrice",
      "outputs": [
        {
          "name": "",
          "type": "uint256"
        }
      ],
      "payable": false,
      "stateMutability": "view",
      "type": "function"
    },
    {
      "constant": true,
      "inputs": [],
      "name": "investors",
      "outputs": [
        {
          "name": "",
          "type": "uint256"
        }
      ],
      "payable": false,
      "stateMutability": "view",
      "type": "function"
    },
    {
      "constant": true,
      "inputs": [],
      "name": "isFinalized",
      "outputs": [
        {
          "name": "",
          "type": "bool"
        }
      ],
      "payable": false,
      "stateMutability": "view",
      "type": "function"
    },
    {
      "constant": true,
      "inputs": [],
      "name": "owner",
      "outputs": [
        {
          "name": "",
          "type": "address"
        }
      ],
      "payable": false,
      "stateMutability": "view",
      "type": "function"
    },
    {
      "constant": true,
      "inputs": [],
      "name": "individualRoundCap",
      "outputs": [
        {
          "name": "",
          "type": "uint256"
        }
      ],
      "payable": false,
      "stateMutability": "view",
      "type": "function"
    },
    {
      "constant": true,
      "inputs": [
        {
          "name": "",
          "type": "address"
        }
      ],
      "name": "moneySpent",
      "outputs": [
        {
          "name": "",
          "type": "uint256"
        }
      ],
      "payable": false,
      "stateMutability": "view",
      "type": "function"
    },
    {
      "constant": true,
      "inputs": [],
      "name": "weisRaised",
      "outputs": [
        {
          "name": "",
          "type": "uint256"
        }
      ],
      "payable": false,
      "stateMutability": "view",
      "type": "function"
    },
    {
      "constant": true,
      "inputs": [
        {
          "name": "",
          "type": "address"
        }
      ],
      "name": "onChain",
      "outputs": [
        {
          "name": "",
          "type": "bool"
        }
      ],
      "payable": false,
      "stateMutability": "view",
      "type": "function"
    },
    {
      "constant": true,
      "inputs": [],
      "name": "distribute",
      "outputs": [
        {
          "name": "",
          "type": "bool"
        }
      ],
      "payable": false,
      "stateMutability": "view",
      "type": "function"
    },
    {
      "constant": true,
      "inputs": [],
      "name": "hardCap",
      "outputs": [
        {
          "name": "",
          "type": "uint256"
        }
      ],
      "payable": false,
      "stateMutability": "view",
      "type": "function"
    },
    {
      "constant": true,
      "inputs": [],
      "name": "token",
      "outputs": [
        {
          "name": "",
          "type": "address"
        }
      ],
      "payable": false,
      "stateMutability": "view",
      "type": "function"
    },
    {
      "inputs": [
        {
          "name": "_token",
          "type": "address"
        }
      ],
      "payable": false,
      "stateMutability": "nonpayable",
      "type": "constructor"
    },
    {
      "payable": true,
      "stateMutability": "payable",
      "type": "fallback"
    },
    {
      "anonymous": false,
      "inputs": [],
      "name": "Finalized",
      "type": "event"
    },
    {
      "anonymous": false,
      "inputs": [
        {
          "indexed": false,
          "name": "wlCandidate",
          "type": "address"
        },
        {
          "indexed": false,
          "name": "timestamp",
          "type": "uint256"
        }
      ],
      "name": "Authorized",
      "type": "event"
    },
    {
      "anonymous": false,
      "inputs": [
        {
          "indexed": false,
          "name": "wlCandidate",
          "type": "address"
        },
        {
          "indexed": false,
          "name": "timestamp",
          "type": "uint256"
        }
      ],
      "name": "Revoked",
      "type": "event"
    },
    {
      "constant": false,
      "inputs": [
        {
          "name": "_newDevPool",
          "type": "address"
        }
      ],
      "name": "setVestingAddress",
      "outputs": [],
      "payable": false,
      "stateMutability": "nonpayable",
      "type": "function"
    },
    {
      "constant": false,
      "inputs": [],
      "name": "distributionTokens",
      "outputs": [],
      "payable": false,
      "stateMutability": "nonpayable",
      "type": "function"
    },
    {
      "constant": false,
      "inputs": [
        {
          "name": "_beneficiary",
          "type": "address"
        }
      ],
      "name": "authorize",
      "outputs": [],
      "payable": false,
      "stateMutability": "nonpayable",
      "type": "function"
    },
    {
      "constant": false,
      "inputs": [
        {
          "name": "_beneficiaries",
          "type": "address[]"
        }
      ],
      "name": "addManyAuthorizeToWhitelist",
      "outputs": [],
      "payable": false,
      "stateMutability": "nonpayable",
      "type": "function"
    },
    {
      "constant": false,
      "inputs": [
        {
          "name": "_beneficiary",
          "type": "address"
        }
      ],
      "name": "revoke",
      "outputs": [],
      "payable": false,
      "stateMutability": "nonpayable",
      "type": "function"
    },
    {
      "constant": true,
      "inputs": [
        {
          "name": "who",
          "type": "address"
        }
      ],
      "name": "isWhitelisted",
      "outputs": [
        {
          "name": "",
          "type": "bool"
        }
      ],
      "payable": false,
      "stateMutability": "view",
      "type": "function"
    },
    {
      "constant": false,
      "inputs": [],
      "name": "finalize",
      "outputs": [],
      "payable": false,
      "stateMutability": "nonpayable",
      "type": "function"
    }
  ],
  "bytecode": "0x608060405273ce66e79f59eafacaf4cabaa317cab4857487e3a1600260006101000a81548173ffffffffffffffffffffffffffffffffffffffff021916908373ffffffffffffffffffffffffffffffffffffffff160217905550635b141080600355635b3b9d806004556000600860006101000a81548160ff0219169083151502179055506000600860016101000a81548160ff0219169083151502179055503480156100ab57600080fd5b50604051602080611ad483398101806040528101908080519060200190929190505050336000806101000a81548173ffffffffffffffffffffffffffffffffffffffff021916908373ffffffffffffffffffffffffffffffffffffffff160217905550600073ffffffffffffffffffffffffffffffffffffffff168173ffffffffffffffffffffffffffffffffffffffff161415151561014a57600080fd5b80600160006101000a81548173ffffffffffffffffffffffffffffffffffffffff021916908373ffffffffffffffffffffffffffffffffffffffff160217905550506119398061019b6000396000f300608060405260043610610128576000357c0100000000000000000000000000000000000000000000000000000000900463ffffffff1680630aa1ee4c146102e75780633af32abf146103125780634783c35b1461036d5780634bb278f3146103c45780634f248409146103db57806374a8f103146104065780637fa8c158146104495780638620410b146104745780638ac27f5f1461049f5780638d4e4083146104ca5780638da5cb5b146104f95780638e7fffe814610550578063b4fce4f41461057b578063b6a5d7de146105d2578063d30e930214610615578063d3dd9a181461062c578063da5f838d14610692578063e4d75c9d146106bd578063e4ec376214610700578063e4fc6b6d1461075b578063fb86a4041461078a578063fc0c546a146107b5575b684d1137dfd4165400006009541115151561014257600080fd5b61014b3361080c565b156102e0576003544210158015610163575060045442105b151561016e57600080fd5b610176610862565b6101c834600c60003373ffffffffffffffffffffffffffffffffffffffff1673ffffffffffffffffffffffffffffffffffffffff1681526020019081526020016000205461093790919063ffffffff16565b600c60003373ffffffffffffffffffffffffffffffffffffffff1673ffffffffffffffffffffffffffffffffffffffff16815260200190815260200160002081905550600554600c60003373ffffffffffffffffffffffffffffffffffffffff1673ffffffffffffffffffffffffffffffffffffffff168152602001908152602001600020541115151561025b57600080fd5b6102653334610955565b61027a3460095461093790919063ffffffff16565b60098190555073ce66e79f59eafacaf4cabaa317cab4857487e3a173ffffffffffffffffffffffffffffffffffffffff166108fc349081150290604051600060405180830381858888f193505050501580156102da573d6000803e3d6000fd5b506102e5565b600080fd5b005b3480156102f357600080fd5b506102fc610bb0565b6040518082815260200191505060405180910390f35b34801561031e57600080fd5b50610353600480360381019080803573ffffffffffffffffffffffffffffffffffffffff16906020019092919050505061080c565b604051808215151515815260200191505060405180910390f35b34801561037957600080fd5b50610382610bb6565b604051808273ffffffffffffffffffffffffffffffffffffffff1673ffffffffffffffffffffffffffffffffffffffff16815260200191505060405180910390f35b3480156103d057600080fd5b506103d9610bce565b005b3480156103e757600080fd5b506103f0610ecd565b6040518082815260200191505060405180910390f35b34801561041257600080fd5b50610447600480360381019080803573ffffffffffffffffffffffffffffffffffffffff169060200190929190505050610ed3565b005b34801561045557600080fd5b5061045e610ff4565b6040518082815260200191505060405180910390f35b34801561048057600080fd5b50610489610ffa565b6040518082815260200191505060405180910390f35b3480156104ab57600080fd5b506104b4611004565b6040518082815260200191505060405180910390f35b3480156104d657600080fd5b506104df61100a565b604051808215151515815260200191505060405180910390f35b34801561050557600080fd5b5061050e61101d565b604051808273ffffffffffffffffffffffffffffffffffffffff1673ffffffffffffffffffffffffffffffffffffffff16815260200191505060405180910390f35b34801561055c57600080fd5b50610565611042565b6040518082815260200191505060405180910390f35b34801561058757600080fd5b506105bc600480360381019080803573ffffffffffffffffffffffffffffffffffffffff169060200190929190505050611048565b6040518082815260200191505060405180910390f35b3480156105de57600080fd5b50610613600480360381019080803573ffffffffffffffffffffffffffffffffffffffff169060200190929190505050611060565b005b34801561062157600080fd5b5061062a6111e4565b005b34801561063857600080fd5b5061069060048036038101908080359060200190820180359060200190808060200260200160405190810160405280939291908181526020018383602002808284378201915050505050509192919290505050611710565b005b34801561069e57600080fd5b506106a76117ac565b6040518082815260200191505060405180910390f35b3480156106c957600080fd5b506106fe600480360381019080803573ffffffffffffffffffffffffffffffffffffffff1690602001909291905050506117b2565b005b34801561070c57600080fd5b50610741600480360381019080803573ffffffffffffffffffffffffffffffffffffffff169060200190929190505050611851565b604051808215151515815260200191505060405180910390f35b34801561076757600080fd5b50610770611871565b604051808215151515815260200191505060405180910390f35b34801561079657600080fd5b5061079f611884565b6040518082815260200191505060405180910390f35b3480156107c157600080fd5b506107ca611891565b604051808273ffffffffffffffffffffffffffffffffffffffff1673ffffffffffffffffffffffffffffffffffffffff16815260200191505060405180910390f35b6000600b60008373ffffffffffffffffffffffffffffffffffffffff1673ffffffffffffffffffffffffffffffffffffffff16815260200190815260200160002060009054906101000a900460ff169050919050565b60035442101580156108795750611c206003540142105b15610892576706f05b59d3b20000600581905550610935565b611c206003540142101580156108ad57506138406003540142105b156108c657671bc16d674ec80000600581905550610934565b6138406003540142101580156108e25750620151806003540142105b156108fb57678ac7230489e80000600581905550610933565b62015180600354014210158015610913575060045442105b1561092d57684d1137dfd416540000600581905550610932565b600080fd5b5b5b5b565b600080828401905083811015151561094b57fe5b8091505092915050565b600061098a65414d3d7eb00061097c670de0b6b3a7640000856118b790919063ffffffff16565b6118f290919063ffffffff16565b9050600160009054906101000a900473ffffffffffffffffffffffffffffffffffffffff1673ffffffffffffffffffffffffffffffffffffffff1663f501d8b884836040518363ffffffff167c0100000000000000000000000000000000000000000000000000000000028152600401808373ffffffffffffffffffffffffffffffffffffffff1673ffffffffffffffffffffffffffffffffffffffff16815260200182815260200192505050602060405180830381600087803b158015610a5157600080fd5b505af1158015610a65573d6000803e3d6000fd5b505050506040513d6020811015610a7b57600080fd5b810190808051906020019092919050505050600a60003373ffffffffffffffffffffffffffffffffffffffff1673ffffffffffffffffffffffffffffffffffffffff16815260200190815260200160002060009054906101000a900460ff161515610b9f57600d3390806001815401808255809150509060018203906000526020600020016000909192909190916101000a81548173ffffffffffffffffffffffffffffffffffffffff021916908373ffffffffffffffffffffffffffffffffffffffff160217905550506001600a60003373ffffffffffffffffffffffffffffffffffffffff1673ffffffffffffffffffffffffffffffffffffffff16815260200190815260200160002060006101000a81548160ff0219169083151502179055505b600d80549050600681905550505050565b60075481565b73ce66e79f59eafacaf4cabaa317cab4857487e3a181565b6000809054906101000a900473ffffffffffffffffffffffffffffffffffffffff1673ffffffffffffffffffffffffffffffffffffffff163373ffffffffffffffffffffffffffffffffffffffff16141515610c2957600080fd5b600860009054906101000a900460ff16151515610c4557600080fd5b60045442101580610c605750684d1137dfd416540000600954115b1515610c6b57600080fd5b7f6823b073d48d6e3a7d385eeb601452d680e74bb46afe3255a7d778f3a9b1768160405160405180910390a16001600860006101000a81548160ff021916908315150217905550600160009054906101000a900473ffffffffffffffffffffffffffffffffffffffff1673ffffffffffffffffffffffffffffffffffffffff1663f501d8b86000809054906101000a900473ffffffffffffffffffffffffffffffffffffffff16600160009054906101000a900473ffffffffffffffffffffffffffffffffffffffff1673ffffffffffffffffffffffffffffffffffffffff166370a08231306040518263ffffffff167c0100000000000000000000000000000000000000000000000000000000028152600401808273ffffffffffffffffffffffffffffffffffffffff1673ffffffffffffffffffffffffffffffffffffffff168152602001915050602060405180830381600087803b158015610dcf57600080fd5b505af1158015610de3573d6000803e3d6000fd5b505050506040513d6020811015610df957600080fd5b81019080805190602001909291905050506040518363ffffffff167c0100000000000000000000000000000000000000000000000000000000028152600401808373ffffffffffffffffffffffffffffffffffffffff1673ffffffffffffffffffffffffffffffffffffffff16815260200182815260200192505050602060405180830381600087803b158015610e8f57600080fd5b505af1158015610ea3573d6000803e3d6000fd5b505050506040513d6020811015610eb957600080fd5b810190808051906020019092919050505050565b60045481565b6000809054906101000a900473ffffffffffffffffffffffffffffffffffffffff1673ffffffffffffffffffffffffffffffffffffffff163373ffffffffffffffffffffffffffffffffffffffff16141515610f2e57600080fd5b6000600b60008373ffffffffffffffffffffffffffffffffffffffff1673ffffffffffffffffffffffffffffffffffffffff16815260200190815260200160002060006101000a81548160ff0219169083151502179055507f713b90881ad62c4fa8ab6bd9197fa86481fc0c11b2edba60026514281b2dbac48142604051808373ffffffffffffffffffffffffffffffffffffffff1673ffffffffffffffffffffffffffffffffffffffff1681526020018281526020019250505060405180910390a150565b60035481565b65414d3d7eb00081565b60065481565b600860009054906101000a900460ff1681565b6000809054906101000a900473ffffffffffffffffffffffffffffffffffffffff1681565b60055481565b600c6020528060005260406000206000915090505481565b6000809054906101000a900473ffffffffffffffffffffffffffffffffffffffff1673ffffffffffffffffffffffffffffffffffffffff163373ffffffffffffffffffffffffffffffffffffffff161415156110bb57600080fd5b600073ffffffffffffffffffffffffffffffffffffffff168173ffffffffffffffffffffffffffffffffffffffff16141515156110f757600080fd5b6111008161080c565b15151561110c57600080fd5b6001600b60008373ffffffffffffffffffffffffffffffffffffffff1673ffffffffffffffffffffffffffffffffffffffff16815260200190815260200160002060006101000a81548160ff0219169083151502179055506007600081548092919060010191905055507fb39b5f240c7440b58c1c6cfd328b09ff9aa18b3c8ef4b829774e4f5bad0394168142604051808373ffffffffffffffffffffffffffffffffffffffff1673ffffffffffffffffffffffffffffffffffffffff1681526020018281526020019250505060405180910390a150565b6000809054906101000a900473ffffffffffffffffffffffffffffffffffffffff1673ffffffffffffffffffffffffffffffffffffffff163373ffffffffffffffffffffffffffffffffffffffff1614151561123f57600080fd5b600860019054906101000a900460ff1615151561125b57600080fd5b600160009054906101000a900473ffffffffffffffffffffffffffffffffffffffff1673ffffffffffffffffffffffffffffffffffffffff1663f501d8b8737b97bf2df716932aaed4dff09806d97b70c165d6670de0b6b3a7640000623567e0026040518363ffffffff167c0100000000000000000000000000000000000000000000000000000000028152600401808373ffffffffffffffffffffffffffffffffffffffff1673ffffffffffffffffffffffffffffffffffffffff16815260200182815260200192505050602060405180830381600087803b15801561134157600080fd5b505af1158015611355573d6000803e3d6000fd5b505050506040513d602081101561136b57600080fd5b810190808051906020019092919050505050600160009054906101000a900473ffffffffffffffffffffffffffffffffffffffff1673ffffffffffffffffffffffffffffffffffffffff1663f501d8b873adc50ae48b4d97a140ec0f037e85e7a0b13453c4670de0b6b3a76400006302c0f4c0026040518363ffffffff167c0100000000000000000000000000000000000000000000000000000000028152600401808373ffffffffffffffffffffffffffffffffffffffff1673ffffffffffffffffffffffffffffffffffffffff16815260200182815260200192505050602060405180830381600087803b15801561146457600080fd5b505af1158015611478573d6000803e3d6000fd5b505050506040513d602081101561148e57600080fd5b810190808051906020019092919050505050600160009054906101000a900473ffffffffffffffffffffffffffffffffffffffff1673ffffffffffffffffffffffffffffffffffffffff1663f501d8b8600260009054906101000a900473ffffffffffffffffffffffffffffffffffffffff16670de0b6b3a7640000630138ce20026040518363ffffffff167c0100000000000000000000000000000000000000000000000000000000028152600401808373ffffffffffffffffffffffffffffffffffffffff1673ffffffffffffffffffffffffffffffffffffffff16815260200182815260200192505050602060405180830381600087803b15801561159557600080fd5b505af11580156115a9573d6000803e3d6000fd5b505050506040513d60208110156115bf57600080fd5b810190808051906020019092919050505050600160009054906101000a900473ffffffffffffffffffffffffffffffffffffffff1673ffffffffffffffffffffffffffffffffffffffff1663f501d8b873253579153746cd2d09c89e73810e369ac6f16115670de0b6b3a764000062989680026040518363ffffffff167c0100000000000000000000000000000000000000000000000000000000028152600401808373ffffffffffffffffffffffffffffffffffffffff1673ffffffffffffffffffffffffffffffffffffffff16815260200182815260200192505050602060405180830381600087803b1580156116b757600080fd5b505af11580156116cb573d6000803e3d6000fd5b505050506040513d60208110156116e157600080fd5b8101908080519060200190929190505050506001600860016101000a81548160ff021916908315150217905550565b60008060009054906101000a900473ffffffffffffffffffffffffffffffffffffffff1673ffffffffffffffffffffffffffffffffffffffff163373ffffffffffffffffffffffffffffffffffffffff1614151561176d57600080fd5b600090505b81518110156117a85761179b828281518110151561178c57fe5b90602001906020020151611060565b8080600101915050611772565b5050565b60095481565b6000809054906101000a900473ffffffffffffffffffffffffffffffffffffffff1673ffffffffffffffffffffffffffffffffffffffff163373ffffffffffffffffffffffffffffffffffffffff1614151561180d57600080fd5b80600260006101000a81548173ffffffffffffffffffffffffffffffffffffffff021916908373ffffffffffffffffffffffffffffffffffffffff16021790555050565b600a6020528060005260406000206000915054906101000a900460ff1681565b600860019054906101000a900460ff1681565b684d1137dfd41654000081565b600160009054906101000a900473ffffffffffffffffffffffffffffffffffffffff1681565b60008060008414156118cc57600091506118eb565b82840290508284828115156118dd57fe5b041415156118e757fe5b8091505b5092915050565b600080828481151561190057fe5b04905080915050929150505600a165627a7a72305820089c27d6bec4ba0a46f7403fbf96f0d300aaa19801a9705d7cac62e2e3ca05260029",
  "source": "pragma solidity 0.4.24;\n\n/*\n* @author Ivan Borisov (2622610@gmail.com) (Github.com/pillardevelopment)\n*/\nlibrary SafeMath {\n\n    function mul(uint256 a, uint256 b) internal pure returns (uint256) {\n        if (a == 0) {\n            return 0;\n        }\n        uint256 c = a * b;\n        assert(c / a == b);\n        return c;\n    }\n\n    function div(uint256 a, uint256 b) internal pure returns (uint256) {\n        uint256 c = a / b;\n        return c;\n    }\n\n    function sub(uint256 a, uint256 b) internal pure returns (uint256) {\n        assert(b <= a);\n        return a - b;\n    }\n\n    function add(uint256 a, uint256 b) internal pure returns (uint256) {\n        uint256 c = a + b;\n        assert(c >= a);\n        return c;\n    }\n}\n\ninterface ERC20 {\n    function transfer (address _beneficiary, uint256 _tokenAmount) external returns (bool);\n    function transferFromICO(address _to, uint256 _value) external returns(bool);\n    function balanceOf(address who) external view returns (uint256);\n}\n\ncontract Ownable {\n    address public owner;\n\n    constructor() public {\n        owner = msg.sender;\n    }\n\n    modifier onlyOwner() {\n        require(msg.sender == owner);\n        _;\n    }\n}\n\n/*********************************************************************************************************************\n* @dev see https://github.com/ethereum/EIPs/issues/20 */\n/*************************************************************************************************************/\ncontract WhalesburgCrowdsale is Ownable {\n    using SafeMath for uint256;\n\n    ERC20 public token;\n\n    address public constant multisig = 0xCe66E79f59eafACaf4CaBaA317CaB4857487E3a1; // for test Only\n    address constant bounty = 0x7B97BF2df716932aaED4DfF09806D97b70C165d6; //\n    address constant privateInvestors = 0xADc50Ae48B4D97a140eC0f037e85e7a0B13453C4; // for test Only\n    address developers = 0xCe66E79f59eafACaf4CaBaA317CaB4857487E3a1; // for test Only\n    address constant founders = 0x253579153746cD2D09C89e73810E369ac6F16115; // for test Only\n\n    uint256 public startICO = 1528041600; // Sunday, 03-Jun-18 16:00:00 UTC\n    uint256 public endICO = 1530633600;  // Tuesday, 03-Jul-18 16:00:00 UTC\n\n    uint256 constant privateSaleTokens = 46200000; // ждет уточнения\n    uint256 constant foundersReserve = 10000000;\n    uint256 constant developmentReserve = 20500000;\n    uint256 constant bountyReserve = 3500000;\n\n    uint256 public individualRoundCap;\n\n    uint256 public constant hardCap = 1421640000000000000000; // 1421.64 ether\n\n    uint256 public investors;\n\n    uint256 public membersWhiteList;\n\n    uint256 public constant buyPrice = 71800000000000; // 0.0000718 Ether\n\n    bool public isFinalized = false;\n    bool public distribute = false;\n\n    uint256 public weisRaised;\n\n    mapping (address => bool) public onChain;\n    mapping (address => bool) whitelist;\n    mapping (address => uint256) public moneySpent;\n\n    address[] tokenHolders;\n\n    event Finalized();\n    event Authorized(address wlCandidate, uint256 timestamp);\n    event Revoked(address wlCandidate, uint256 timestamp);\n\n    modifier isUnderHardCap() {\n        require(weisRaised <= hardCap);\n        _;\n    }\n\n    constructor(ERC20 _token) public {\n        require(_token != address(0));\n        token = _token;\n    }\n\n    function setVestingAddress(address _newDevPool) public onlyOwner {\n        developers = _newDevPool;\n    }\n\n    function distributionTokens() public onlyOwner {\n        require(!distribute);\n        token.transferFromICO(bounty, bountyReserve*1e18);\n        token.transferFromICO(privateInvestors, privateSaleTokens*1e18);\n        token.transferFromICO(developers, developmentReserve*1e18);\n        token.transferFromICO(founders, foundersReserve*1e18);\n        distribute = true;\n    }\n\n    /******************-- WhiteList --***************************/\n    function authorize(address _beneficiary) public onlyOwner  {\n        require(_beneficiary != address(0x0));\n        require(!isWhitelisted(_beneficiary));\n        whitelist[_beneficiary] = true;\n        membersWhiteList++;\n        emit Authorized(_beneficiary, now);\n    }\n\n    function addManyAuthorizeToWhitelist(address[] _beneficiaries) public onlyOwner {\n        for (uint256 i = 0; i < _beneficiaries.length; i++) {\n            authorize(_beneficiaries[i]);\n        }\n    }\n\n    function revoke(address _beneficiary) public  onlyOwner {\n        whitelist[_beneficiary] = false;\n        emit Revoked(_beneficiary, now);\n    }\n\n    function isWhitelisted(address who) public view returns(bool) {\n        return whitelist[who];\n    }\n\n    function finalize() onlyOwner public {\n        require(!isFinalized);\n        require(now >= endICO || weisRaised > hardCap);\n        emit Finalized();\n        isFinalized = true;\n        token.transferFromICO(owner, token.balanceOf(this));\n    }\n\n    /***************************--Payable --*********************************************/\n\n    function () isUnderHardCap public payable {\n        if(isWhitelisted(msg.sender)) {\n            require(now >= startICO && now < endICO);\n            currentSaleLimit();\n            moneySpent[msg.sender] = moneySpent[msg.sender].add(msg.value);\n            require(moneySpent[msg.sender] <= individualRoundCap);\n            sell(msg.sender, msg.value);\n            weisRaised = weisRaised.add(msg.value);\n            multisig.transfer(msg.value);\n        } else {\n            revert();\n        }\n    }\n\n    function currentSaleLimit() private {\n        if(now >= startICO && now < startICO+7200) {\n\n            individualRoundCap = 500000000000000000; //0,5 ETH\n        }\n        else if(now >= startICO+7200 && now < startICO+14400) {\n\n            individualRoundCap = 2000000000000000000; // 2 ETH\n        }\n        else if(now >= startICO+14400 && now < startICO+86400) {\n\n            individualRoundCap = 10000000000000000000; // 10 ETH\n        }\n        else if(now >= startICO+86400 && now < endICO) {\n\n            individualRoundCap = hardCap; //1421.64 ETH\n        }\n        else {\n            revert();\n        }\n    }\n\n    function sell(address _investor, uint256 amount) private {\n        uint256 _amount = amount.mul(1e18).div(buyPrice);\n        token.transferFromICO(_investor, _amount);\n        if (!onChain[msg.sender]) {\n            tokenHolders.push(msg.sender);\n            onChain[msg.sender] = true;\n        }\n        investors = tokenHolders.length;\n    }\n}",
  "sourcePath": "/Users/ivanborisov/Yandex.Disk.localized/IT/WorkProjects/Portfolio_SK/WLproject/contracts/WhalesburgSale.sol",
  "compiler": {
    "name": "solc",
    "version": "0.4.24+commit.e67f0147.Emscripten.clang"
  },
  "schemaVersion": "2.0.0",
  "updatedAt": "2018-06-01T07:36:02.093Z"
}